{"abi":[{"type":"receive","stateMutability":"payable"},{"type":"function","name":"execute","inputs":[{"name":"candidates","type":"tuple[]","internalType":"struct JitSwapRouter.CandidateCall[]","components":[{"name":"target","type":"address","internalType":"address"},{"name":"value","type":"uint256","internalType":"uint256"},{"name":"data","type":"bytes","internalType":"bytes"}]},{"name":"tokenOut","type":"address","internalType":"address"},{"name":"minOut","type":"uint256","internalType":"uint256"},{"name":"deadline","type":"uint256","internalType":"uint256"},{"name":"recipient","type":"address","internalType":"address"}],"outputs":[{"name":"selectedIndex","type":"uint256","internalType":"uint256"},{"name":"receivedAmount","type":"uint256","internalType":"uint256"}],"stateMutability":"payable"},{"type":"event","name":"CandidateFailed","inputs":[{"name":"index","type":"uint256","indexed":true,"internalType":"uint256"},{"name":"target","type":"address","indexed":true,"internalType":"address"},{"name":"reason","type":"bytes","indexed":false,"internalType":"bytes"}],"anonymous":false},{"type":"event","name":"CandidateSelected","inputs":[{"name":"index","type":"uint256","indexed":true,"internalType":"uint256"},{"name":"target","type":"address","indexed":true,"internalType":"address"},{"name":"receivedAmount","type":"uint256","indexed":false,"internalType":"uint256"}],"anonymous":false},{"type":"error","name":"DeadlineExpired","inputs":[]},{"type":"error","name":"InsufficientOutput","inputs":[{"name":"received","type":"uint256","internalType":"uint256"},{"name":"minOut","type":"uint256","internalType":"uint256"}]},{"type":"error","name":"InvalidTarget","inputs":[]},{"type":"error","name":"InvalidValue","inputs":[]},{"type":"error","name":"NoCandidateSucceeded","inputs":[]}],"bytecode":{"object":"0x6080604052348015600e575f5ffd5b506109e18061001c5f395ff3fe608060405260043610610021575f3560e01c80630be915931461002c57610028565b3661002857005b5f5ffd5b6100466004803603810190610041919061062e565b61005d565b6040516100549291906106d3565b60405180910390f35b5f5f83421115610099576040517f1ab7da6b00000000000000000000000000000000000000000000000000000000815260040160405180910390fd5b5f6100a48785610398565b90505f5f90505b8989905081101561035a57368a8a838181106100ca576100c96106fa565b5b90506020028101906100dc9190610733565b90505f73ffffffffffffffffffffffffffffffffffffffff16815f016020810190610107919061075a565b73ffffffffffffffffffffffffffffffffffffffff1603610154576040517f82d5d76a00000000000000000000000000000000000000000000000000000000815260040160405180910390fd5b4781602001351115610192576040517faa7feadc00000000000000000000000000000000000000000000000000000000815260040160405180910390fd5b5f5f825f0160208101906101a6919061075a565b73ffffffffffffffffffffffffffffffffffffffff1683602001358480604001906101d19190610785565b6040516101df929190610823565b5f6040518083038185875af1925050503d805f8114610219576040519150601f19603f3d011682016040523d82523d5f602084013e61021e565b606091505b50915091508161029057825f01602081019061023a919061075a565b73ffffffffffffffffffffffffffffffffffffffff16847f19786d15063a3ac1e084a07859d7705c0712b5f487d4597e5f5b65e3000978e68360405161028091906108ab565b60405180910390a350505061034d565b5f61029b8c8a610398565b90505f86826102aa91906108f8565b90508b8110156102db576102d186865f0160208101906102ca919061075a565b838f61046c565b505050505061034d565b845f0160208101906102ed919061075a565b73ffffffffffffffffffffffffffffffffffffffff16867f45271b44d81420ca2a55864781e3a412f518dc44ecc5b079523060b0d0ba045983604051610333919061092b565b60405180910390a38581985098505050505050505061038d565b80806001019150506100ab565b506040517f609cc12200000000000000000000000000000000000000000000000000000000815260040160405180910390fd5b965096945050505050565b5f5f73ffffffffffffffffffffffffffffffffffffffff168373ffffffffffffffffffffffffffffffffffffffff16036103eb578173ffffffffffffffffffffffffffffffffffffffff16319050610466565b8273ffffffffffffffffffffffffffffffffffffffff166370a08231836040518263ffffffff1660e01b81526004016104249190610953565b602060405180830381865afa15801561043f573d5f5f3e3d5ffd5b505050506040513d601f19601f820116820180604052508101906104639190610980565b90505b92915050565b8273ffffffffffffffffffffffffffffffffffffffff16847f19786d15063a3ac1e084a07859d7705c0712b5f487d4597e5f5b65e3000978e6632c19b8b860e01b85856040516024016104c09291906106d3565b604051602081830303815290604052907bffffffffffffffffffffffffffffffffffffffffffffffffffffffff19166020820180517bffffffffffffffffffffffffffffffffffffffffffffffffffffffff838183161783525050505060405161052a91906108ab565b60405180910390a350505050565b5f5ffd5b5f5ffd5b5f5ffd5b5f5ffd5b5f5ffd5b5f5f83601f84011261056157610560610540565b5b8235905067ffffffffffffffff81111561057e5761057d610544565b5b60208301915083602082028301111561059a57610599610548565b5b9250929050565b5f73ffffffffffffffffffffffffffffffffffffffff82169050919050565b5f6105ca826105a1565b9050919050565b6105da816105c0565b81146105e4575f5ffd5b50565b5f813590506105f5816105d1565b92915050565b5f819050919050565b61060d816105fb565b8114610617575f5ffd5b50565b5f8135905061062881610604565b92915050565b5f5f5f5f5f5f60a0878903121561064857610647610538565b5b5f87013567ffffffffffffffff8111156106655761066461053c565b5b61067189828a0161054c565b9650965050602061068489828a016105e7565b945050604061069589828a0161061a565b93505060606106a689828a0161061a565b92505060806106b789828a016105e7565b9150509295509295509295565b6106cd816105fb565b82525050565b5f6040820190506106e65f8301856106c4565b6106f360208301846106c4565b9392505050565b7f4e487b71000000000000000000000000000000000000000000000000000000005f52603260045260245ffd5b5f5ffd5b5f5ffd5b5f5ffd5b5f8235600160600383360303811261074e5761074d610727565b5b80830191505092915050565b5f6020828403121561076f5761076e610538565b5b5f61077c848285016105e7565b91505092915050565b5f5f833560016020038436030381126107a1576107a0610727565b5b80840192508235915067ffffffffffffffff8211156107c3576107c261072b565b5b6020830192506001820236038313156107df576107de61072f565b5b509250929050565b5f81905092915050565b828183375f83830152505050565b5f61080a83856107e7565b93506108178385846107f1565b82840190509392505050565b5f61082f8284866107ff565b91508190509392505050565b5f81519050919050565b5f82825260208201905092915050565b8281835e5f83830152505050565b5f601f19601f8301169050919050565b5f61087d8261083b565b6108878185610845565b9350610897818560208601610855565b6108a081610863565b840191505092915050565b5f6020820190508181035f8301526108c38184610873565b905092915050565b7f4e487b71000000000000000000000000000000000000000000000000000000005f52601160045260245ffd5b5f610902826105fb565b915061090d836105fb565b9250828203905081811115610925576109246108cb565b5b92915050565b5f60208201905061093e5f8301846106c4565b92915050565b61094d816105c0565b82525050565b5f6020820190506109665f830184610944565b92915050565b5f8151905061097a81610604565b92915050565b5f6020828403121561099557610994610538565b5b5f6109a28482850161096c565b9150509291505056fea26469706673582212200d22ea4829df8aded309cdac6a10f466ad133e2045db576401657831f35f71bd64736f6c634300081e0033","linkReferences":{}},"methodIdentifiers":{"execute((address,uint256,bytes)[],address,uint256,uint256,address)":"0be91593"},"id":0}